:020000040000FA
:020000000528D1
:08000800CE28831205309F0091
:100010000430900085018601831686018B170B172B
:1000200013203120102883128E018F0183160C10AB
:10003000051583168510831285100000831685141C
:100040008312851819280C138316831210149F0825
:1000500083160C1400000C1700000C1B2C288312B4
:10006000080083120E08F839D000D101D201D01F48
:100070003D28FF30D100D2007228501F57280314AA
:10008000D10DD20D0314D10DD20D0314D10DD20D0B
:100090000314D10DD20D0314D10DD20D0314D10DC3
:1000A000D20D0314D10DD20D0314D10DD20DD01EDB
:1000B00065280314D10DD20D0314D10DD20D0314F4
:1000C000D10DD20D0314D10DD20D501E6D28031485
:1000D000D10DD20D0314D10DD20DD01D72280314F1
:1000E000D10DD20D83168601000085110000051088
:1000F000000005128312860185150000051400001A
:100100000512051051180614C5208601D118861451
:10011000C520860151190615C5208601D1198615FD
:10012000C5208601511A0616C5208601D11A8616E9
:10013000C5208601511B0617C5208601D11B8617D5
:10014000C52086010514851152180614C5208601A4
:10015000D2188614C520860152190615C5208601BD
:10016000D2198615C5208601521A0616C5208601A9
:10017000D21A8616C5208601521B0617C520860195
:10018000D21B8617C5208601080083160516831228
:10019000051EC8288316051283120800831210104A
:1001A0000C1300000C1083160C1300000C10090037
:02400E00503F21
:00000001FF
