:020000040000FA
:020000000528D1
:080008007729831205309F00E7
:100010000430900085018601831686018B170B172B
:1000200013203120102883128E018F0183160C10AB
:10003000051583168510831285100000831685141C
:100040008312851819280C138316831210149F0825
:1000500083160C1400000C1700000C1B2C288312B4
:10006000080083120E08D0008316860105120000D6
:100070008511000005108312860105120000851508
:10008000000005140000D101D201D301D401D01F1A
:1000900099280314D10DD20DD30DD40D0314D10D15
:1000A000D20DD30DD40D0314D10DD20DD30DD40D1B
:1000B0000314D10DD20DD30DD40D0314D10DD20DD7
:1000C000D30DD40D0314D10DD20DD30DD40D0314C3
:1000D000D10DD20DD30DD40D0314D10DD20DD30DEE
:1000E000D40D0314D10DD20DD30DD40D0314D10DA5
:1000F000D20DD30DD40D0314D10DD20DD30DD40DCB
:100100000314D10DD20DD30DD40D0314D10DD20D86
:10011000D30DD40D0314D10DD20DD30DD40D031472
:10012000D10DD20DD30DD40D0314D10DD20DD30D9D
:10013000D40D501FC3280314D10DD20DD30DD40DEF
:100140000314D10DD20DD30DD40D0314D10DD20D46
:10015000D30DD40D0314D10DD20DD30DD40D031432
:10016000D10DD20DD30DD40D0314D10DD20DD30D5D
:10017000D40D0314D10DD20DD30DD40D0314D10D14
:10018000D20DD30DD40DD01ED9280314D10DD20D0C
:10019000D30DD40D0314D10DD20DD30DD40D0314F2
:1001A000D10DD20DD30DD40D0314D10DD20DD30D1D
:1001B000D40D501EE5280314D10DD20DD30DD40D4E
:1001C0000314D10DD20DD30DD40DD01DEC28031482
:1001D000D10DD20DD30DD40DD50183120516831682
:1001E00005168312D50A051EF228831605128312FE
:1001F000051055085118061464218601D11886147B
:10020000642186015119061564218601D1198615CC
:1002100064218601511A061664218601D11A8616B8
:1002200064218601511B061764218601D11B8617A4
:1002300064218601051400008511521806146421FA
:100240008601D2188614642186015219061564218C
:100250008601D219861564218601521A0616642178
:100260008601D21A861664218601521B0617642164
:100270008601D21B861764218601851500000512B0
:100280005318061464218601D3188614642186014C
:100290005319061564218601D31986156421860138
:1002A000531A061664218601D31A86166421860124
:1002B000531B061764218601D31B86176421860110
:1002C0000516080000000800D600D700D60B6629E6
:1002D000D600D70B66290800831685108516831271
:1002E0008510851E712983168514831208008312D8
:1002F00010100C1300000C1083160C1300000C10CF
:020300000900F2
:02400E00423F2F
:00000001FF
