:020000040000FA
:020000000528D1
:080008006229831205309F00FC
:100010000430900085018601831686018B170B172B
:1000200013203120102883128E018F0183160C10AB
:10003000051583168510831285100000831685141C
:100040008312851819280C138316831210149F0825
:1000500083160C1400000C1700000C1B2C288312B4
:10006000080083120E08D0008316860105120000D6
:100070008511000005108312860105120000851508
:10008000000005140000D101D201D301D401D01F1A
:1000900099280314D10DD20DD30DD40D0314D10D15
:1000A000D20DD30DD40D0314D10DD20DD30DD40D1B
:1000B0000314D10DD20DD30DD40D0314D10DD20DD7
:1000C000D30DD40D0314D10DD20DD30DD40D0314C3
:1000D000D10DD20DD30DD40D0314D10DD20DD30DEE
:1000E000D40D0314D10DD20DD30DD40D0314D10DA5
:1000F000D20DD30DD40D0314D10DD20DD30DD40DCB
:100100000314D10DD20DD30DD40D0314D10DD20D86
:10011000D30DD40D0314D10DD20DD30DD40D031472
:10012000D10DD20DD30DD40D0314D10DD20DD30D9D
:10013000D40D501FC3280314D10DD20DD30DD40DEF
:100140000314D10DD20DD30DD40D0314D10DD20D46
:10015000D30DD40D0314D10DD20DD30DD40D031432
:10016000D10DD20DD30DD40D0314D10DD20DD30D5D
:10017000D40D0314D10DD20DD30DD40D0314D10D14
:10018000D20DD30DD40DD01ED9280314D10DD20D0C
:10019000D30DD40D0314D10DD20DD30DD40D0314F2
:1001A000D10DD20DD30DD40D0314D10DD20DD30D1D
:1001B000D40D501EE5280314D10DD20DD30DD40D4E
:1001C0000314D10DD20DD30DD40DD01DEC28031482
:1001D000D10DD20DD30DD40DD50183120516831682
:1001E00005168312D50A051EF228831605128312FE
:1001F00005105508511806144F21D11886144F21A7
:10020000511906154F21D11986154F21511A06167D
:100210004F21D11A86164F21511B06174F21D11B92
:1002200086174F2186010514000085115218061407
:100230004F21D21886144F21521906154F21D21979
:1002400086154F21521A06164F21D21A86164F21B3
:10025000521B06174F21D21B86174F218601851589
:1002600000000512531806144F21D31886144F218D
:10027000531906154F21D31986154F21531A061607
:100280004F21D31A86164F21531B06174F21D31B1C
:1002900086174F2186010516080000000800D600C9
:1002A000D700D60B5129D600D70B51290800831649
:1002B0008510851683128510851E5C29831685148A
:1002C00083120800831210100C1300000C10831608
:0802D0000C1300000C100900E2
:02400E00423F2F
:00000001FF
