:020000040000FA
:020000000528D1
:080008009029831205309F00CE
:100010000430900085018601831686018B170B172B
:1000200013203F20102883128E018F0183160C109D
:1000300005158316851083128510D601D60B1E2850
:10004000D601D60B2128D601D60B2428D601D60BF3
:100050002728831685148312851819280C138316F4
:10006000831210149F0883160C1400000C17000054
:100070000C1B372883168510831285100800831205
:100080000E08D000831686010512000085110000BD
:100090000510831286010512000085150000051465
:1000A0000000D101D201D301D401D01FA72803142D
:1000B000D10DD20DD30DD40D0314D10DD20DD30D0E
:1000C000D40D0314D10DD20DD30DD40D0314D10DC5
:1000D000D20DD30DD40D0314D10DD20DD30DD40DEB
:1000E0000314D10DD20DD30DD40D0314D10DD20DA7
:1000F000D30DD40D0314D10DD20DD30DD40D031493
:10010000D10DD20DD30DD40D0314D10DD20DD30DBD
:10011000D40D0314D10DD20DD30DD40D0314D10D74
:10012000D20DD30DD40D0314D10DD20DD30DD40D9A
:100130000314D10DD20DD30DD40D0314D10DD20D56
:10014000D30DD40D0314D10DD20DD30DD40D501FEA
:10015000D1280314D10DD20DD30DD40D0314D10D1C
:10016000D20DD30DD40D0314D10DD20DD30DD40D5A
:100170000314D10DD20DD30DD40D0314D10DD20D16
:10018000D30DD40D0314D10DD20DD30DD40D031402
:10019000D10DD20DD30DD40D0314D10DD20DD30D2D
:1001A000D40DD01EE7280314D10DD20DD30DD40DDC
:1001B0000314D10DD20DD30DD40D0314D10DD20DD6
:1001C000D30DD40D0314D10DD20DD30DD40D501E6B
:1001D000F3280314D10DD20DD30DD40D0314D10D7A
:1001E000D20DD30DD40DD01DFA280314D10DD20D8C
:1001F000D30DD40DD501831205168316051683126F
:10020000D50A051E0029831605128312051055080C
:1002100051088600550851187D21D1187D215119AA
:100220007D21D1197D21511A7D21D11A7D21511BAA
:100230007D21D11B7D218601511C7D21D11C7D2179
:10024000511D7D21D11D7D21511E7D21D11E7D217C
:10025000511F7D21D11F7D210514000085115208F9
:100260008600550852187D21D2187D2152197D2112
:10027000D2197D21521A7D21D21A7D21521B7D2156
:10028000D21B7D2185158601521C7D21D21C7D212A
:10029000521D7D21D21D7D21521E7D21D21E7D2128
:1002A000521F7D21D21F7D2105125308860055085B
:1002B00053187D21D3187D2153197D21D3197D2118
:1002C000531A7D21D31A7D21531B7D21D31B7D2100
:1002D00086010516531C7D21D31C7D21531D7D21D4
:1002E000D31D7D21531E7D21D31E7D21531F7D21D2
:1002F000D31F7D21080000000800D600D700D60BD0
:100300007F29D600D70B7F29080083168510851614
:1003100083128510851E8A2983168514831208008E
:10032000831210100C1300000C1083160C13000025
:040330000C100900A4
:02400E00423F2F
:00000001FF
