:020000040000FA
:020000000528D1
:080008008829831205309F00D6
:100010000430900085018601831686018B170B172B
:100020001F202D204620102883168510831285104E
:1000300000008316851483128518142808001420E4
:10004000831685100000831285100000D901D801A5
:10005000D80B2828D90B2728080083160C10051563
:100060000000851483128E018F010C1383168312F6
:1000700010149F0883160C1400000C1700000C1BB2
:100080003E288316851083128510080083120F08FE
:10009000D0008316860105120000851100000510AE
:1000A000831286010512000085150000051400006A
:1000B000D101D201D301D401D01FAE280314D10D38
:1000C000D20DD30DD40D0314D10DD20DD30DD40DFB
:1000D0000314D10DD20DD30DD40D0314D10DD20DB7
:1000E000D30DD40D0314D10DD20DD30DD40D0314A3
:1000F000D10DD20DD30DD40D0314D10DD20DD30DCE
:10010000D40D0314D10DD20DD30DD40D0314D10D84
:10011000D20DD30DD40D0314D10DD20DD30DD40DAA
:100120000314D10DD20DD30DD40D0314D10DD20D66
:10013000D30DD40D0314D10DD20DD30DD40D031452
:10014000D10DD20DD30DD40D0314D10DD20DD30D7D
:10015000D40D0314D10DD20DD30DD40D501FD828BA
:100160000314D10DD20DD30DD40D0314D10DD20D26
:10017000D30DD40D0314D10DD20DD30DD40D031412
:10018000D10DD20DD30DD40D0314D10DD20DD30D3D
:10019000D40D0314D10DD20DD30DD40D0314D10DF4
:1001A000D20DD30DD40D0314D10DD20DD30DD40D1A
:1001B000D01EEE280314D10DD20DD30DD40D03148F
:1001C000D10DD20DD30DD40D0314D10DD20DD30DFD
:1001D000D40D0314D10DD20DD30DD40D501EFA2819
:1001E0000314D10DD20DD30DD40D0314D10DD20DA6
:1001F000D30DD40DD01D01290314D10DD20DD30D73
:10020000D40DD50183120516831605168312D50366
:10021000051E07298316051283120510550851186B
:10022000061479218601D118861479218601511985
:10023000061579218601D119861579218601511A71
:10024000061679218601D11A861679218601511B5D
:10025000061779218601D11B86177921860105149D
:10026000000085115218061479218601D2188614CF
:10027000792186015219061579218601D219861530
:1002800079218601521A061679218601D21A86161C
:1002900079218601521B061779218601D21B861708
:1002A000792186018515000005125318061479215D
:1002B0008601D318861479218601531906157921F0
:1002C0008601D319861579218601531A06167921DC
:1002D0008601D31A861679218601531B06177921C8
:1002E0008601D31B861779218601051608000000B8
:1002F0000800D600D60B7A290800831685108516CB
:1003000083128510851E82298316851483120800A6
:10031000831210100C1300000C1083160C13000035
:040320000C100900B4
:02400E00423F2F
:00000001FF
