:020000040000FA
:020000000528D1
:080008009128831205309F00CE
:100010000430900085018601831686018B170B172B
:1000200013203120102883128E018F0183160C10AB
:10003000051583168510831285100000831685141C
:100040008312851819280C138316831210149F0825
:1000500083160C1400000C1700000C1B2C288312B4
:10006000080083120E08F039D000D101D201D01F50
:1000700051280314D10DD20D0314D10DD20D031448
:10008000D10DD20D0314D10DD20D0314D10DD20D0B
:100090000314D10DD20D0314D10DD20D0314D10DC3
:1000A000D20D501F5F280314D10DD20D0314D10DB2
:1000B000D20D0314D10DD20D0314D10DD20DD01ECB
:1000C00067280314D10DD20D0314D10DD20D501E8B
:1000D0006C280314D10DD20D831686010000851102
:1000E0000000051000000512831286018511000032
:1000F0000510000005125108860005148316051628
:100100008312051E812883160512831205105208DA
:1001100086008515831605168312051E8D28851108
:100120000800831210100C1300000C1083160C131F
:0601300000000C100900A4
:02400E00503F21
:00000001FF
