:020000040000FA
:020000000528D1
:08000800D428831205309F008B
:100010000430900085018601831686018B170B172B
:1000200013203120102883128E018F0183160C10AB
:10003000051583168510831285100000831685141C
:100040008312851819280C138316831210149F0825
:1000500083160C1400000C1700000C1B2C288312B4
:10006000080083120E08F839D000D101D201D30163
:10007000D01F3E28FF30D100D2007328501F5828CF
:100080000314D10DD20D0314D10DD20D0314D10DD3
:10009000D20D0314D10DD20D0314D10DD20D0314C2
:1000A000D10DD20D0314D10DD20D0314D10DD20DEB
:1000B000D01E66280314D10DD20D0314D10DD20D1C
:1000C0000314D10DD20D0314D10DD20D501E6E2884
:1000D0000314D10DD20D0314D10DD20DD01D7328F0
:1000E0000314D10DD20D8316860100000512000005
:1000F0008511000005108312860105160000851584
:10010000000005140000051051180614C7208601D0
:10011000D1188614C720860151190615C7208601FB
:10012000D1198615C7208601511A0616C7208601E7
:10013000D11A8616C7208601511B0617C7208601D3
:10014000D11B8617C7208601051485115218061485
:10015000C7208601D2188614C720860152190615B9
:10016000C7208601D2198615C7208601521A0616A5
:10017000C7208601D21A8616C7208601521B061791
:10018000C7208601D21B8617C72086010800000001
:10019000000008008316051685168312051ECE285A
:1001A0008316051283120800831210100C1300002E
:0C01B0000C1083160C1300000C1009004A
:02400E00423F2F
:00000001FF
