:020000040000FA
:020000000528D1
:080008006229831205309F00FC
:100010000430900085018601831686018B170B172B
:1000200013203120102883128E018F0183160C10AB
:10003000051583168510831285100000831685141C
:100040008312851819280C138316831210149F0825
:1000500083160C1400000C1700000C1B2C288312B4
:10006000080083120E08D0008316860105120000D6
:100070008511000005108312860105120000851508
:10008000000005140000D101D201D301D401D01F1A
:1000900099280314D10DD20DD30DD40D0314D10D15
:1000A000D20DD30DD40D0314D10DD20DD30DD40D1B
:1000B0000314D10DD20DD30DD40D0314D10DD20DD7
:1000C000D30DD40D0314D10DD20DD30DD40D0314C3
:1000D000D10DD20DD30DD40D0314D10DD20DD30DEE
:1000E000D40D0314D10DD20DD30DD40D0314D10DA5
:1000F000D20DD30DD40D0314D10DD20DD30DD40DCB
:100100000314D10DD20DD30DD40D0314D10DD20D86
:10011000D30DD40D0314D10DD20DD30DD40D031472
:10012000D10DD20DD30DD40D0314D10DD20DD30D9D
:10013000D40D501FC3280314D10DD20DD30DD40DEF
:100140000314D10DD20DD30DD40D0314D10DD20D46
:10015000D30DD40D0314D10DD20DD30DD40D031432
:10016000D10DD20DD30DD40D0314D10DD20DD30D5D
:10017000D40D0314D10DD20DD30DD40D0314D10D14
:10018000D20DD30DD40DD01ED9280314D10DD20D0C
:10019000D30DD40D0314D10DD20DD30DD40D0314F2
:1001A000D10DD20DD30DD40D0314D10DD20DD30D1D
:1001B000D40D501EE5280314D10DD20DD30DD40D4E
:1001C0000314D10DD20DD30DD40DD01DEC28031482
:1001D000D10DD20DD30DD40DD50183120516831682
:1001E00005168312D50A051EF228831605128312FE
:1001F0000510550851088600550851184F21D1188F
:100200004F2151194F21D1194F21511A4F21D11A84
:100210004F21511B4F21D11B4F2186010514000096
:10022000851152088600550852184F21D2184F21C7
:1002300052194F21D2194F21521A4F21D21A4F2150
:10024000521B4F21D21B4F2185158601531C4F2174
:10025000D31C4F21531D4F21D31D4F21531E4F211E
:10026000D31E4F21531F4F21D31F4F210512530877
:100270008600550853184F21D3184F2153194F2189
:10028000D3194F21531A4F21D31A4F21531B4F21FA
:10029000D31B4F2105168601080000000800D60078
:1002A000D700D60B5129D600D70B51290800831649
:1002B0008510851683128510851E5C29831685148A
:1002C00083120800831210100C1300000C10831608
:0802D0000C1300000C100900E2
:02400E00423F2F
:00000001FF
