:020000040000FA
:020000000528D1
:08000800E229831205309F007C
:100010000430900085018601831686018B170B172B
:100020007C208B20592000300F02031919280F085B
:10003000A12000300F02031D1F280E08A12021203F
:100040001028831685168312851A08007C208B20C1
:1000500083168B1300309B0083120F0883169A00BF
:100060001C1555309D00AA309D009C149C18362804
:1000700083128C13831601309B0083120E088316A3
:100080009A001C1555309D00AA309D009C149C18A8
:10009000472883168C1383161C118B178312861422
:1000A0008515860C0608D321851A502885118601EE
:1000B0000800831600309B001C141A088312E2000B
:1000C000831601309B001C141A088312E10061089A
:1000D0008E026208031C620F8F0208008F018E01DE
:1000E000080083168510831285100000831685147E
:1000F000831285187128080071208316851000006E
:100100008312851000001030D900D801D80B862842
:10011000D90B852808008312E0018E010C108F0195
:100120000C1383160C1705150C14831210149F085A
:10013000831685140C1B9A2883168510831285104C
:1001400008008312D0008316860105120000851175
:1001500000000510831286010512000085150000BD
:1001600005140000D101D201D301D401D01F082908
:100170000314D10DD20DD30DD40D0314D10DD20D16
:10018000D30DD40D0314D10DD20DD30DD40D031402
:10019000D10DD20DD30DD40D0314D10DD20DD30D2D
:1001A000D40D0314D10DD20DD30DD40D0314D10DE4
:1001B000D20DD30DD40D0314D10DD20DD30DD40D0A
:1001C0000314D10DD20DD30DD40D0314D10DD20DC6
:1001D000D30DD40D0314D10DD20DD30DD40D0314B2
:1001E000D10DD20DD30DD40D0314D10DD20DD30DDD
:1001F000D40D0314D10DD20DD30DD40D0314D10D94
:10020000D20DD30DD40D0314D10DD20DD30DD40DB9
:10021000501F32290314D10DD20DD30DD40D031468
:10022000D10DD20DD30DD40D0314D10DD20DD30D9C
:10023000D40D0314D10DD20DD30DD40D0314D10D53
:10024000D20DD30DD40D0314D10DD20DD30DD40D79
:100250000314D10DD20DD30DD40D0314D10DD20D35
:10026000D30DD40DD01E48290314D10DD20DD30DBA
:10027000D40D0314D10DD20DD30DD40D0314D10D13
:10028000D20DD30DD40D0314D10DD20DD30DD40D39
:10029000501E54290314D10DD20DD30DD40D0314C7
:1002A000D10DD20DD30DD40DD01D5B290314D10D6A
:1002B000D20DD30DD40DD501831205168316051664
:1002C0008312D503051E61298316051283120510BA
:1002D000550851180614D3218601D1188614D3214C
:1002E000860151190615D3218601D1198615D3210E
:1002F0008601511A0616D3218601D11A8616D321FA
:100300008601511B0617D3218601D11B8617D321E5
:10031000860105140000851152180614D3218601A8
:10032000D2188614D321860152190615D3218601CD
:10033000D2198615D3218601521A0616D3218601B9
:10034000D21A8616D3218601521B0617D3218601A5
:10035000D21B8617D321860185150000051253187C
:100360000614D3218601D3188614D321860153198C
:100370000615D3218601D3198615D3218601531A78
:100380000616D3218601D31A8616D3218601531B64
:100390000617D3218601D31B8617D32186010516A4
:1003A000080000000800D600D60BD42908008316E8
:1003B0008510851683128510851EDC298316851409
:1003C00083120800831210100C1300000C10831607
:0803D0000C1300000C100900E1
:02400E00503F21
:00000001FF
